{
  "contractName": "Test",
  "abi": [
    {
      "constant": true,
      "inputs": [],
      "name": "nextId",
      "outputs": [
        {
          "internalType": "uint256",
          "name": "",
          "type": "uint256"
        }
      ],
      "payable": false,
      "stateMutability": "view",
      "type": "function"
    },
    {
      "constant": true,
      "inputs": [
        {
          "internalType": "uint256",
          "name": "",
          "type": "uint256"
        }
      ],
      "name": "users",
      "outputs": [
        {
          "internalType": "uint256",
          "name": "id",
          "type": "uint256"
        },
        {
          "internalType": "string",
          "name": "name",
          "type": "string"
        }
      ],
      "payable": false,
      "stateMutability": "view",
      "type": "function"
    },
    {
      "constant": false,
      "inputs": [
        {
          "internalType": "string",
          "name": "name",
          "type": "string"
        }
      ],
      "name": "create",
      "outputs": [],
      "payable": false,
      "stateMutability": "nonpayable",
      "type": "function"
    },
    {
      "constant": true,
      "inputs": [
        {
          "internalType": "uint256",
          "name": "id",
          "type": "uint256"
        }
      ],
      "name": "read",
      "outputs": [
        {
          "internalType": "uint256",
          "name": "",
          "type": "uint256"
        },
        {
          "internalType": "string",
          "name": "",
          "type": "string"
        }
      ],
      "payable": false,
      "stateMutability": "view",
      "type": "function"
    }
  ],
  "bytecode": "0x60806040526001805534801561001457600080fd5b506105e6806100246000396000f3fe608060405234801561001057600080fd5b506004361061004c5760003560e01c8063365b98b21461005157806361b8ce8c146100ff578063b6a46b3b1461011d578063ed2e5a97146101d8575b600080fd5b61007d6004803603602081101561006757600080fd5b8101908080359060200190929190505050610286565b6040518083815260200180602001828103825283818151815260200191508051906020019080838360005b838110156100c35780820151818401526020810190506100a8565b50505050905090810190601f1680156100f05780820380516001836020036101000a031916815260200191505b50935050505060405180910390f35b61010761034f565b6040518082815260200191505060405180910390f35b6101d66004803603602081101561013357600080fd5b810190808035906020019064010000000081111561015057600080fd5b82018360208201111561016257600080fd5b8035906020019184600183028401116401000000008311171561018457600080fd5b91908080601f016020809104026020016040519081016040528093929190818152602001838380828437600081840152601f19601f820116905080830192505050505050509192919290505050610355565b005b610204600480360360208110156101ee57600080fd5b81019080803590602001909291905050506103d8565b6040518083815260200180602001828103825283818151815260200191508051906020019080838360005b8381101561024a57808201518184015260208101905061022f565b50505050905090810190601f1680156102775780820380516001836020036101000a031916815260200191505b50935050505060405180910390f35b6000818154811061029357fe5b9060005260206000209060020201600091509050806000015490806001018054600181600116156101000203166002900480601f0160208091040260200160405190810160405280929190818152602001828054600181600116156101000203166002900480156103455780601f1061031a57610100808354040283529160200191610345565b820191906000526020600020905b81548152906001019060200180831161032857829003601f168201915b5050505050905082565b60015481565b60006040518060400160405280600154815260200183815250908060018154018082558091505090600182039060005260206000209060020201600090919290919091506000820151816000015560208201518160010190805190602001906103bf92919061050c565b5050505060016000815480929190600101919050555050565b6000606060008090505b6000805490508110156105055783600082815481106103fd57fe5b90600052602060002090600202016000015414156104f8576000818154811061042257fe5b9060005260206000209060020201600001546000828154811061044157fe5b9060005260206000209060020201600101808054600181600116156101000203166002900480601f0160208091040260200160405190810160405280929190818152602001828054600181600116156101000203166002900480156104e75780601f106104bc576101008083540402835291602001916104e7565b820191906000526020600020905b8154815290600101906020018083116104ca57829003601f168201915b505050505090509250925050610507565b80806001019150506103e2565b505b915091565b828054600181600116156101000203166002900490600052602060002090601f016020900481019282601f1061054d57805160ff191683800117855561057b565b8280016001018555821561057b579182015b8281111561057a57825182559160200191906001019061055f565b5b509050610588919061058c565b5090565b6105ae91905b808211156105aa576000816000905550600101610592565b5090565b9056fea265627a7a72315820e4ace4c8f6806ca6f0c94c44c1da18d969b3e841fb57a38d7f71b355884740db64736f6c63430005100032",
  "source": "pragma solidity ^0.5.0;\n\ncontract Test {\n\tstruct User {\n\t\tuint id;\n\t\tstring name;\n\t}\n\tUser[] public users;\n\tuint public nextId = 1;\n\n\tfunction create(string memory name) public {\n\t\tusers.push(User(nextId, name));\n\t\tnextId++;\n\t}\n\n\tfunction read(uint id) view public returns(uint, string memory) {\n\t\tfor(uint i = 0; i < users.length; i++) {\n\t\t\tif(users[i].id == id) {\n\t\t\t\treturn(users[i].id, users[i].name);\n\t\t\t}\n\t\t}\n\t}\n}\n",
  "sourcePath": "/Users/wilhelmmichaelsen/Desktop/dapp2/contracts/test.sol",
  "compiler": {
    "name": "solc",
    "version": "0.5.16+commit.9c3226ce.Emscripten.clang"
  },
  "schemaVersion": "3.3.2",
  "updatedAt": "2020-12-15T11:27:43.974Z",
  "networkType": "ethereum",
  "devdoc": {
    "methods": {}
  },
  "userdoc": {
    "methods": {}
  }
}